:020000040800F2
:1000000000000120A90C0008190500081B050008C4
:100010001D0500081F05000821050008000000005C
:1000200000000000000000000000000023050008A0
:100030002505000800000000270500082905000824
:10004000F10C0008F10C0008F10C0008F10C00089C
:10005000F10C0008F10C0008F10C0008F10C00088C
:10006000F10C0008F10C0008F10C0008F10C00087C
:10007000F10C0008F10C0008F10C0008F10C00086C
:10008000F10C0008F10C0008F10C0008F10C00085C
:10009000F10C0008F10C0008F10C0008F10C00084C
:1000A000F10C0008F10C0008F10C0008F10C00083C
:1000B000F10C0008F10C0008F10C0008F10C00082C
:1000C000F10C0008F10C0008F10C0008F10C00081C
:1000D000F10C0008F10C000845050008F10C0008BF
:1000E00059050008F10C0008F10C0008F10C00089B
:1000F000F10C0008F10C0008F10C0008F10C0008EC
:10010000F10C0008F10C0008F10C0008F10C0008DB
:10011000F10C0008F10C0008F10C0008F10C0008CB
:10012000F10C0008F10C0008F10C0008F10C0008BB
:1001300000000000000000000000000000000000BF
:1001400000000000000000000000000000000000AF
:10015000000000000000000000000000000000009F
:10016000000000000000000000000000000000008F
:10017000000000000000000000000000000000007F
:10018000000000000000000000000000000000006F
:10019000000000000000000000000000000000005F
:1001A000000000000000000000000000000000004F
:1001B000000000000000000000000000000000003F
:1001C000000000000000000000000000000000002F
:1001D000000000000000000000000000000000001F
:0401E0005FF8E0F1F3
:1001E40010B5054C237833B9044B13B10448AFF36D
:1001F40000800123237010BD4C000020000000008B
:100204005C3E000808B5034B1BB103490348AFF338
:10021400008008BD00000000500000205C3E000883
:100224002DE9F0478CB008AD0024089409940A9491
:100234000B944B4B9A6942F040029A619A6902F01E
:1002440040020192019A9A6942F004029A619A6901
:1002540002F004020292029A9A6942F080029A61C0
:100264009A6902F080020392039A9A6942F48072B6
:100274009A619A6902F480720492049A9A6942F02B
:1002840020029A619A6902F020020592059A9A69FD
:1002940042F010029A619A6902F010020692069ADC
:1002A4009A6942F008029A619B6903F00803079374
:1002B400079BDFF8B0A02246FC21504601F073F8FA
:1002C400DFF8A49022464FF40061484601F06BF831
:1002D400264F224641F20601384601F064F89C2379
:1002E4000893012609960A944FF00208CDF82C8051
:1002F4002946504600F0A6FE6023089309960A9406
:100304000B962946504600F09DFE4FF40063089377
:1003140009960A94CDF82C802946484600F092FEAE
:100324004FF47043089309940A942946484600F010
:1003340089FE3923089309940A942946384600F023
:1003440081FE41F20603089309960A94CDF82C80A5
:100354002946384600F076FE0CB0BDE8F08700BFB1
:100364000010024000180140001C01400020014020
:1003740008B50B480B4B03600B4B436000238360B1
:10038400C3604FF48042026143618361C3610362CD
:1003940001F0C2F900B908BD00F03AF8FBE700BF6C
:1003A4006800002000540040A086010010B586B00B
:1003B400002302930393049305930268114B9A421A
:1003C40001D006B010BD104CA36943F00803A3612B
:1003D400A36903F008030093009BC0230293122334
:1003E40003930323059302A9084800F02BFEE36955
:1003F40043F40013E361E36903F400130193019BE5
:10040400DFE700BF0054004000100240000C014030
:1004140072B6FEE710B590B006AC28220021204643
:1004240003F03CFC0023019302930393049305938C
:10043400012206924FF4803307930A9202220D920E
:100444000E934FF4E0130F93204601F009FB78B9A3
:100454000F23019302210291002303934FF480623E
:100464000492059301A801F02DFD18B910B010BD38
:10047400FFF7CEFFFFF7CCFF08B500F05FFCFFF7F6
:10048400C9FFFFF7CDFE00F08FFA00F01DFBFFF768
:100494006FFF00F079F800F0A7F800F0D7F800F04B
:1004A40007F900F0A1FB03F03BF802F083FD03F031
:1004B4002DF902F0FFFD02F0FDFE02F0EFFF03F064
:1004C4008BFA03F0A1F902F02BFF03F025FBFEE702
:1004D40082B00E4B9A6942F001029A619A6902F065
:1004E40001020092009ADA6942F08052DA61DB6913
:1004F40003F080530193019B054A536823F0E063A2
:1005040043F00073536002B0704700BF0010024014
:1005140000000140FEE7FEE7FEE7FEE7FEE7704766
:100524007047704708B500F01BFC03F019F802F09F
:10053400C9FF02F0D1FE02F083FD03F019FB08BDF0
:1005440008B502F037FF024802F0F2FB08BD00BF15
:100554006C02002008B54FF4006000F02BFF4FF44C
:10056400805000F027FF08BD08B5B0F5805F03D0C8
:10057400B0F5006F03D008BD03F070FAFBE702F09A
:10058400E7FDF8E77047000010B58CB003AC2422F7
:100594000021204603F082FB0023019302931148BB
:1005A4004FF080420260436083604FF6FF72C26086
:1005B400036183610123039305930993214601F0A9
:1005C400CFFE48B900230193029301A9054802F024
:1005D4003FF920B90CB010BDFFF71AFFF2E7FFF79F
:1005E40017FFF7E7DC01002010B58CB003AC242220
:1005F4000021204603F052FB00230193029311488B
:10060400114A0260436083604FF6FF72C260036167
:1006140083610123039305930993214601F0A0FE0E
:1006240048B900230193029301A9064802F010F986
:1006340020B90CB010BDFFF7EBFEF2E7FFF7E8FEC0
:10064400F7E700BF940100200004004010B58CB00F
:1006540003AC24220021204603F020FB0023019355
:1006640002931148114A0260436083604FF6FF729F
:10067400C2600361836101230393059309932146B7
:1006840001F06EFE48B900230193029301A90648C4
:1006940002F0DEF820B90CB010BDFFF7B9FEF2E7A6
:1006A400FFF7B6FEF7E700BF4C010020000800404A
:1006B40010B58CB003AC24220021204603F0EEFADE
:1006C4000023019302931148114A0260436083603E
:1006D4004FF6FF72C26003618361012303930593A4
:1006E4000993214601F03CFE48B90023019302938B
:1006F40001A9064802F0ACF820B90CB010BDFFF710
:1007040087FEF2E7FFF784FEF7E700BF040100204D
:10071400000C004082B003680E4A934204D00E4A93
:1007240093420CD002B070470C4B9A6942F40062B9
:100734009A619B6903F400630093009BF2E7074B03
:100744009A6942F400529A619B6903F4005301933D
:10075400019BE7E7002C01400034014000100240F7
:10076400F0B58FB000230A930B930C930D93036899
:10077400B3F1804F0BD05D4A934240D05C4A934220
:1007840078D05C4A934200F097800FB0F0BD03F537
:100794000433DA6942F00102DA61DA6902F0010233
:1007A4000092009A9A6942F004029A619A6902F0EE
:1007B40004020192019A9A6942F008029A619B69C3
:1007C40003F008030293029B4FF400430A930AAC1C
:1007D4002146494800F036FC08230A9300230B9372
:1007E4000C932146454800F02DFC454A536823F4F8
:1007F400407343F0E06343F480735360C5E7414CB6
:10080400E36943F00203E361E36903F00203039342
:10081400039BA36943F00403A361A36903F00403E6
:100824000493049BC0270A970AAD334E29463046E9
:1008340000F008FC3946304600F01CFDA36943F083
:100844000803A361A36903F008030593059B302300
:100854000A9300230B930C932946284800F0F2FBDB
:10086400274A536823F4406343F0E06343F400638E
:1008740053608AE7234BDA6942F00402DA61DA69E9
:1008840002F004020692069A9A6942F020029A61E2
:100894009B6903F020030793079B4FF440530A938B
:1008A4000AA9194800F0CEFB154A536843F0E063E7
:1008B40043F48053536068E7124BDA6942F008024C
:1008C400DA61DA6902F008020892089A9A6942F039
:1008D40004029A619B6903F004030993099B0323AF
:1008E4000A930AA9044800F0ADFB4EE70004004057
:1008F40000080040000C004000080140000C0140CA
:1009040000000140001002400014014000B587B00F
:100914000023029303930493059303681C4A9342B0
:1009240004D01C4A93421DD007B000BD1A4B9A69EB
:1009340042F040029A619B6903F040030093009BDC
:100944004FF4D443029302230393059302A913485B
:1009540000F078FB124A536843F0E06343F0C003AD
:100964005360E1E70C4B9A6942F010029A619B696B
:1009740003F010030193019B4FF47073029302235D
:100984000393059302A9074800F05CFBCCE700BF82
:10099400002C0140003401400010024000180140C6
:1009A400000001400010014010B596B000241294DC
:1009B4001394149415941094119409940A940B9418
:1009C4000C940D940E940F942022214601A803F058
:1009D40065F93B483B4B03604460846040F60F6319
:1009E400C360046144618023836101F061FC0028D9
:1009F4004BD14FF48053129312A9314801F0BEFD3C
:100A0400002845D12E4801F07FFC002843D1002363
:100A14001093119310A92A4801F01AFF00283DD120
:100A24006023099300220A920B920C920D920E926B
:100A34000F9209A9224801F027FD002831D1042290
:100A440009A91F4801F020FD70BB082209A91C4810
:100A540001F01AFD58BB0C2209A9194801F014FD34
:100A640040BB0023019302930393049305934FF433
:100A740000520692089301A9114801F027FFE0B93A
:100A84000F48FFF743FF16B010BDFFF7C1FCB0E7F6
:100A9400FFF7BEFCB6E7FFF7BBFCB8E7FFF7B8FC0F
:100AA400BEE7FFF7B5FCCAE7FFF7B2FCCDE7FFF7F7
:100AB400AFFCD0E7FFF7ACFCD3E7FFF7A9FCDFE717
:100AC40024020020002C014010B596B0002412949A
:100AD4001394149415941094119409940A940B94F7
:100AE4000C940D940E940F942022214601A803F037
:100AF400D5F83B483B4B03604460846040F60F6389
:100B0400C360046144618023836101F0D1FB002848
:100B14004BD14FF48053129312A9314801F02EFDAA
:100B2400002845D12E4801F0EFFB002843D10023D3
:100B34001093119310A92A4801F08AFE00283DD190
:100B44006023099300220A920B920C920D920E924A
:100B54000F9209A9224801F097FC002831D1042200
:100B640009A91F4801F090FC70BB082209A91C4880
:100B740001F08AFC58BB0C2209A9194801F084FC35
:100B840040BB0023019302930393049305934FF412
:100B940000520692089301A9114801F097FEE0B9AA
:100BA4000F48FFF7B3FE16B010BDFFF731FCB0E7F6
:100BB400FFF72EFCB6E7FFF72BFCB8E7FFF728FC9E
:100BC400BEE7FFF725FCCAE7FFF722FCCDE7FFF7F6
:100BD4001FFCD0E7FFF71CFCD3E7FFF719FCDFE7A6
:100BE400BC0000200034014008B50A480A4B0360E9
:100BF4004FF4E133436000238360C36003610C223C
:100C040042618361C36101F074FF00B908BDFFF75D
:100C1400FFFBFBE76C0200200044004070B586B087
:100C24000023029303930493059302681B4B9A4297
:100C340001D006B070BD03F5E633DA6942F4003240
:100C4400DA61DA6902F400320092009A9A6942F099
:100C540004029A619B6903F004030193019B04233A
:100C64000293022303930323059302AE0C4D3146F2
:100C7400284600F0E7F9082302930024039404941F
:100C84003146284600F0DEF922462146262000F0AF
:100C9400D1F8262000F0DEF8CBE700BF0044004086
:100CA40000080140FFF76EFC0B480C490C4A002376
:100CB40002E0D458C4500433C4188C42F9D3094A0E
:100CC400094C002301E013600432A242FBD303F079
:100CD40033F8FFF7D1FB7047000000204C000020E0
:100CE400584600084C00002000070020FEE70000E2
:100CF40010B504460E4B18680E4B1A784FF47A73ED
:100D0400B3FBF2F3B0FBF3F000F0B2F868B90F2CC8
:100D140001D901200AE0002221464FF0FF3000F003
:100D240089F8054B1C60002000E0012010BD00BFC5
:100D340000000020040000200800002008B5074A35
:100D4400136843F010031360032000F061F80F20D0
:100D5400FFF7CEFFFFF7BCFB002008BD00200240D8
:100D6400034A1168034B1B780B441360704700BFA0
:100D7400B402002004000020014B1868704700BF33
:100D8400B402002038B50446FFF7F6FF0546B4F177
:100D9400FF3F02D0044B1B781C44FFF7EDFF401BC0
:100DA400A042FAD338BD00BF04000020002808DBAD
:100DB4000901C9B200F1604000F5614080F80013F8
:100DC400704700F00F000901C9B2014B1954704774
:100DD40014ED00E000B500F00700C0F1070CBCF111
:100DE400040F28BF4FF0040C031D062B0ED9C31E9D
:100DF4004FF0FF3E0EFA0CF021EA000199400EFA82
:100E040003FE22EA0E0241EA020000BD0023EFE7DE
:100E1400074AD36823F4E0631B041B0C000200F4AC
:100E2400E060034343F0BF6343F40033D36070478F
:100E340000ED00E010B50446054BD868C0F302206D
:100E4400FFF7C8FF01462046FFF7B0FF10BD00BF03
:100E540000ED00E0002807DB00F01F024009012339
:100E64009340024A42F82030704700BF00E100E09E
:100E74000138B0F1807F0BD24FF0E0235861054A6E
:100E8400F02182F823100020986107221A6170472C
:100E94000120704700ED00E0034690F82120022A6B
:100EA40006D004228263002280F8202001207047AB
:100EB40001680A6822F00E020A6001680A6822F0DA
:100EC40001020A60026CC06B012101FA02F2426065
:100ED40083F82110002083F82000704708B590F8AB
:100EE4002130022B03D004238363012008BD026850
:100EF400136823F00E0313600268136823F00103E0
:100F0400136003684B4A93424ED9783A934224D0F3
:100F14001432934230D0143293422FD0143293427D
:100F24002FD0143293422FD0143293422FD0143244
:100F340093422FD002F5627293422ED01432934220
:100F44002DD0143293422CD01432934202D04FF459
:100F5400803203E04FF4805200E00122364B5A60A5
:100F6400012380F82130002380F82030436B002BCC
:100F74005ED098470020B9E71022EFE74FF4807263
:100F8400ECE74FF48052E9E74FF48032E6E74FF4A0
:100F94008012E3E74FF08072E0E70122DEE71022DF
:100FA400DCE74FF48072D9E7244A934224D0143208
:100FB400934225D01432934224D01432934224D045
:100FC4001432934224D01432934224D014329342E4
:100FD40024D002F56272934223D01432934222D079
:100FE4001432934221D01432934202D04FF480320F
:100FF40003E04FF4805200E00122114B5A60AFE746
:101004001022FAE74FF48072F7E74FF48052F4E7C6
:101014004FF48032F1E74FF48012EEE74FF0807224
:10102400EBE70122E9E71022E7E74FF48072E4E7F7
:1010340000205BE7800002400004024008000240F8
:101044000000024070B582B00024A446A8E0834D9D
:10105400AB4214D00CD8A5F58015AB420FD005F5E2
:101064007025AB420BD0A5F58015AB421FD106E02D
:101074007B4DAB4203D005F58035AB4217D18B686D
:10108400A3B1012B0DD04261082410E0CC680EE01E
:10109400CC6804340BE0CC68083408E0CC680C3429
:1010A40005E00261082402E0002400E00424BEF10B
:1010B400FF0F41D806464FEA8C0233680F2595404E
:1010C40023EA050304FA02F2134333604B6813F076
:1010D400805F63D0634B9A6942F001029A619B6915
:1010E40003F001030193019B4FEA9C02951C5E4BA4
:1010F40053F825600CF00305AD000F23AB4026EA3E
:1011040003065A4B98421ED003F58063984200F0C0
:10111400838003F58063984200F0808003F5806348
:1011240098427DD003F5806398427BD003F58063B9
:10113400984206D0062307E0061DACF1080292008F
:10114400BBE7052300E00023AB4033430232464DA6
:1011540045F822304B6813F4801F65D0444A9368E5
:1011640043EA0E0393604B6813F4001F62D0404AB5
:10117400D36843EA0E03D3604B6813F4003F5FD097
:101184003B4A536843EA0E0353604B6813F4803FB1
:101194005CD0374A136843EA0E0313600CF1010C68
:1011A4000B6833FA0CF257D0012202FA0CF203EA6C
:1011B400020E32EA0303F1D14B68122B3FF647AF1C
:1011C400122B3FF674AF01A555F823F083100008E5
:1011D400911000089B100008AD100008B31000081F
:1011E400B3100008B3100008B3100008B3100008CF
:1011F400B3100008B3100008B3100008B3100008BF
:10120400B3100008B3100008B3100008B3100008AE
:1012140095100008A1100008012395E7022393E725
:10122400032391E704238FE7114A936823EA0E030B
:10123400936098E70E4AD36823EA0E03D3609BE7D2
:101244000B4A536823EA0E0353609EE7084A136867
:1012540023EA0E031360A1E702B070BD0000221060
:10126400000031100010024000000140000801405D
:101274000004014000227EE04FF0050E01E04FF033
:10128400000E0EFA04F4644552D0FF2B6BD80546C9
:101294004FEA820E2C684FF00F0C0CFA0EFC24EA75
:1012A4000C044FF0040C0CFA0EFC44EA0C042C6001
:1012B400C46824EA0303C360013231FA02F358D04C
:1012C400012393400B40F7D09708BD1C2F4C54F8D2
:1012D400255002F00304A4004FF00F0C0CFA04F69E
:1012E40006EA050C2A4DA842C9D005F58065A84236
:1012F40012D005F58065A84211D005F58065A84295
:1013040010D005F58065A8420FD005F58065A84288
:10131400B2D04FF0060EB4E74FF0010EB1E74FF034
:10132400020EAEE74FF0030EABE74FF0040EA8E752
:10133400184C256825EA03052560656825EA030538
:101344006560E56825EA0305E560A56825EA030507
:10135400A560DFF838C0BC1C5CF8245025EA0605FB
:101364004CF8245091E7051DA2F1080E4FEA8E0EA9
:1013740090E7F0BD013231FA02F305D00123934026
:101384000B40F7D0F0B59FE7704700BF0000014065
:1013940000080140000401408368194201D0012083
:1013A4007047002070470AB1016170470904016168
:1013B4007047000008B5054B5B69034200D108BDC6
:1013C400024B5861FFF7D0F8F9E700BF0004014071
:1013D40003685A6912F4806F01D1002070476FF4DA
:1013E40080625A6100230363202280F83D2080F844
:1013F4003E30026C42F00402026480F83C3001206A
:1014040070472DE9F04106460C46174698463BE0E6
:10141400FFF7B2FC069BC01A404502D8B8F1000F92
:1014240032D1012D18D033689B6924EA03039BB29F
:10143400B3FA83F35B099F4226D10023336320224E
:1014440086F83D2086F83E30326C42F02002326449
:1014540086F83C30012027E033685B6924EA030303
:101464009BB2B3FA83F35B09E5E733685B6924EA6B
:10147400030C1FFA8CFCBCFA8CFC4FEA5C1C67451D
:1014840011D1B8F1FF3FC3D1C4F30745012DECD00E
:1014940033689B6924EA030C1FFA8CFCBCFA8CFCAD
:1014A4004FEA5C1CEBE70020BDE8F0812DE9F8432E
:1014B40005460E469046994653E01A6842F4007277
:1014C4001A602B686FF480625A6100232B63202218
:1014D40085F83D2085F83E302A6C42F004022A64E7
:1014E40085F83C3001204AE0FFF746FCA0EB0900F8
:1014F400404502D8B8F1000F33D1012F17D02B6823
:101504009B6926EA03039BB2003B18BF012343B344
:1015140000232B63202285F83D2085F83E302A6C79
:1015240042F020022A6485F83C30012027E02B6831
:101534005B6926EA03039BB2003B18BF0123E6E77D
:101544002B689C6926EA0404A4B2003C18BF012459
:10155400A4B12B685A6912F4806FAED1B8F1FF3F81
:10156400C2D1C6F30747012FEAD12B685C6926EA8A
:101574000404A4B2003C18BF0124E9E70020BDE83C
:10158400F88370B504460D46164623685B6913F06C
:10159400800F21D12046FFF71BFFF8B9B5F1FF3FBB
:1015A400F3D0FFF7E9FB801BA84201D8002DECD152
:1015B40023685B6913F0800FE7D1002323632022A3
:1015C40084F83D2084F83E30226C42F020022264EC
:1015D40084F83C30012000E0002070BD0120FCE7CD
:1015E4002DE9F04385B004460D4691461F46DDF8CB
:1015F40030800D9E0368196841F48071196000966B
:10160400434600224FF00111FFF7FBFE60B9236847
:1016140005F0FE051D613346424626492046FFF784
:1016240045FF68B1012008E023681B6813F4807F3C
:1016340002D04FF400732364032005B0BDE8F083A7
:101644000023039323685A6903929B690393039BC2
:10165400324641462046FFF794FF30B9012F0FD19F
:1016640023685FFA89F61E61E7E7236C042B01D037
:101674000120E2E72268136843F400731360F7E77C
:1016840023684FEA19221A61324641462046FFF781
:1016940078FF20B923685FFA89F61E61CDE7236CD1
:1016A400042B01D00120C8E72268136843F40073B7
:1016B4001360F7E70200010070B504460D461646B4
:1016C40023685B6913F0040F21D12046FFF780FEE5
:1016D400F8B9B5F1FF3FF3D0FFF74EFB801BA842EA
:1016E40001D8002DECD123685B6913F0040FE7D116
:1016F40000232363202284F83D2084F83E30226CAA
:1017040042F02002226484F83C30012000E00020F2
:1017140070BD0120FCE70000002800F0CC8070B50B
:10172400044690F83D30002B77D0242384F83D30D4
:101734002268136823F0010313602268136843F4DA
:10174400004313602268136823F40043136000F01D
:1017540075FC62685A4B9A4264D85A4B98428CBFC3
:1017640000230123002B40F0A8805749A1FB00313E
:101774008B0C25686A6822F03F0242EA91426A6053
:1017840021680A6A22F03F0266684D4DAE424FD886
:10179400013313430B622168CA6922F44F4222F0D9
:1017A400FF026568464B9D424CD8431E6D00B3FB57
:1017B400F5F3013340F6FC70034278D0C3F30B0316
:1017C4001A43CA6121680B6823F0C003E269206AE6
:1017D400024313430B6021688B6823F4034323F013
:1017E400FF032269E068024313438B602168CB68DE
:1017F40023F0FF036269A06902431343CB602268AC
:10180400136843F00103136000202064202384F84C
:101814003D30206384F83E0070BD80F83C30FEF714
:10182400C5FD82E7294B98428CBF0023012399E729
:101834004FF4967505FB03F3254DA5FB03539B0954
:101844000133A6E7A668BEB9431E05EB450CB3FBFE
:10185400FCF30133C3F30B03B3FA83F35B0943BB18
:10186400C6B9431E05EB4505B3FBF5F30133C3F3DA
:101874000B0343F40043A3E7431E05EB850C0CEB79
:101884008C0CB3FBFCF30133C3F30B03B3FA83F304
:101894005B09E4E7431E05EB850505EB8505B3FB12
:1018A400F5F30133C3F30B0343F4404388E7042304
:1018B40086E7012384E7012070470120ACE700BFDD
:1018C400A08601007F841E0083DE1B43FF083D00C9
:1018D400D34D62102DE9F04383B004460F46904681
:1018E40099460C9EFFF748FA94F83D20202A03D02D
:1018F400022003B0BDE8F0830546009019230122BD
:101904004A492046FFF77DFD002840F0898094F87D
:101914003C30012B00F08680012384F83C3023689E
:101924001A6812F0010F03D11A6842F001021A601A
:101934002268136823F400631360212384F83D3084
:10194400402384F83E30002323640A9B6362BDF87D
:101954002C306385638D2385354BE36201950096B6
:101964004B46424639462046FFF73AFE00285BD1F3
:10197400238D002B35D02A4631462046FFF701FE41
:1019840020BB626A236812781A61626A531C63621C
:10199400218D013989B22185638D9BB2013B9BB2B4
:1019A40063852368586910F0040FE1D00029DFD063
:1019B40052781A61636A01336362238D013B238584
:1019C400638D9BB2013B9BB26385D1E7236C042BEF
:1019D40001D001208DE72268136843F4007313607B
:1019E400F7E72A4631462046FFF766FE50B1236CDE
:1019F400042B01D001207CE72268136843F40073B0
:101A04001360F7E72268136843F40073136020231C
:101A140084F83D30002384F83E3084F83C3068E795
:101A2400022066E7022064E7012062E7020010005A
:101A34000000FFFF82B0084B1B68084AA2FB032387
:101A44005B0A00FB03F3019300BF019B5A1E019242
:101A5400002BF9D102B0704700000020D34D621072
:101A6400002800F0F18170B582B00446036813F0D9
:101A7400010F2CD0994B5B6803F00C03042B1DD091
:101A8400964B5B6803F00C03082B12D06368B3F524
:101A9400803F41D0002B55D103F1804303F504333B
:101AA4001A6822F480321A601A6822F480221A60BA
:101AB40037E08A4B5B6813F4803FE7D0874B1B68A1
:101AC40013F4003F03D06368002B00F0BF81236848
:101AD40013F0020F75D0814B5B6813F00C0F5FD0CD
:101AE4007E4B5B6803F00C03082B54D02369002B56
:101AF40000F08A807A4B01221A60FFF73DF905460F
:101B0400764B1B6813F0020F75D1FFF735F9401BB4
:101B14000228F5D903209EE1704A136843F4803308
:101B24001360636843B3FFF727F905466B4B1B68E3
:101B340013F4003FCBD1FFF71FF9401B6428F5D9FC
:101B4400032088E1B3F5A02F09D0644B1A6822F46E
:101B540080321A601A6822F480221A60E1E703F1E5
:101B64008043A3F53C331A6842F480221A601A6851
:101B740042F480321A60D4E7FFF7FEF80546574B6B
:101B84001B6813F4003FA2D0FFF7F6F8401B64284B
:101B9400F5D903205FE1514B5B6813F4803FA5D175
:101BA4004E4B1B6813F0020F03D02369012B40F046
:101BB4004F814A4A136823F0F803616943EAC10379
:101BC4001360236813F0080F33D0A369002B5CD093
:101BD400434B0122C3F88024FFF7CEF805463F4B60
:101BE4005B6A13F0020F21D1FFF7C6F8401B0228ED
:101BF400F5D903202FE1394A136823F0F80361690A
:101C040043EAC1031360DCE7354B00221A60FFF797
:101C1400B3F80546314B1B6813F0020FD1D0FFF720
:101C2400ABF8401B0228F5D9032014E10120FFF78B
:101C340001FF236813F0040F00F09680274BDB6943
:101C440013F0805F34D1254BDA6942F08052DA61B7
:101C5400DB6903F080530193019B0125214B1B6831
:101C640013F4807F26D0E368012B3DD0002B53D1A1
:101C740003F1804303F504331A6A22F001021A6265
:101C84001A6A22F004021A6233E0154B0022C3F8E8
:101C94008024FFF771F80546104B5B6A13F0020FBE
:101CA400C7D0FFF769F8401B0228F5D90320D2E01A
:101CB4000025D3E70B4A136843F480731360FFF7DE
:101CC4005BF80646074B1B6813F4807FCBD1FFF704
:101CD40053F8801B6428F5D90320BCE000100240AF
:101CE40000004242007000405F4A136A43F001035F
:101CF4001362E36833B3FFF73FF806465A4B1B6A97
:101D040013F0020F2FD1FFF737F8801B41F288330D
:101D14009842F3D903209EE0052B09D0524B1A6A4E
:101D240022F001021A621A6A22F004021A62E0E73F
:101D34004D4B1A6A42F004021A621A6A42F0010216
:101D44001A62D6E7FFF718F80646474B1B6A13F0EA
:101D5400020F08D0FFF710F8801B41F28833984235
:101D6400F3D9032077E0E5B9E369002B72D03E4A4A
:101D7400526802F00C02082A56D0022B17D03B4BB3
:101D840000221A66FEF7F8FF0446374B1B6813F06F
:101D9400007F47D0FEF7F0FF001B0228F5D903208F
:101DA40059E0314AD36923F08053D361DCE72F4BE8
:101DB40000221A66FEF7E0FF05462B4B1B6813F062
:101DC400007F06D0FEF7D8FF401B0228F5D9032078
:101DD40041E0236AB3F5803F1AD023494B6823F4CA
:101DE4007413226A606A024313434B601F4B01223F
:101DF4001A66FEF7C1FF04461B4B1B6813F0007FF5
:101E04000ED1FEF7B9FF001B0228F5D9032022E00A
:101E1400154A536823F40033A1680B435360DCE78D
:101E2400002018E0002016E0012B16D00E4B5B6852
:101E340003F48031226A914211D103F47013626A6F
:101E440093420ED1002006E001207047012002E0F9
:101E5400012000E0002002B070BD0120FBE701205A
:101E6400F9E70120F7E700BF0010024000004242FA
:101E74000F4B5B6803F00C02082A01D00D48704731
:101E8400C3F383420C49885C13F4803F0BD0084BA6
:101E94005B68C3F34043094AD35C064A02FB00F083
:101EA400B0FBF3F07047064B03FB00F0704700BF34
:101EB4000010024000127A00A83E0008A43E000868
:101EC40000093D00002800F0A08070B50D460446CE
:101ED400524B1B6803F007038B420BD24F4A136823
:101EE40023F007030B431360136803F007038B42CB
:101EF40040F08D80236813F0020F17D013F0040F05
:101F040004D0474A536843F4E0635360236813F0F2
:101F1400080F04D0424A536843F460535360404A64
:101F2400536823F0F003A1680B435360236813F054
:101F3400010F31D06368012B20D0022B25D0384A01
:101F4400126812F0020F64D035494A6822F0030285
:101F540013434B60FEF710FF0646314B5B6803F0FA
:101F64000C036268B3EB820F16D0FEF705FF801BEB
:101F740041F288339842F0D9032045E0284A126898
:101F840012F4003FE0D101203EE0254A126812F02D
:101F9400007FD9D1012037E0204B1B6803F00703F1
:101FA400AB420AD91D4A136823F007032B4313607D
:101FB400136803F00703AB422DD1236813F0040F19
:101FC40006D0174A536823F4E063E1680B43536077
:101FD400236813F0080F07D0114A536823F46053A1
:101FE400216943EAC1035360FFF742FF0C4B5B686E
:101FF400C3F303130B4AD35CD8400B4B18600B4B51
:102004001868FEF775FE002070BD0120704701209E
:10201400FAE70120F8E70120F6E700BF00200240BC
:1020240000100240943E0008000000200800002038
:10203400014B1868704700BF0000002008B5FFF787
:10204400F7FF044B5B68C3F30223034AD35CD84015
:1020540008BD00BF001002408C3E000808B5FFF721
:10206400E7FF044B5B68C3F3C223034AD35CD84045
:1020740008BD00BF001002408C3E000830B4036A63
:10208400026A22F0010202624268846924F0730C3D
:102094000C6844EA0C0423F0020C8B6843EA0C033A
:1020A400114DA84203D005F50065A84205D123F0DF
:1020B4000803CD682B4323F004030B4DA84203D03F
:1020C40005F50065A84207D122F440724D6945EA3E
:1020D400020C8A6942EA0C02426084614A684263E3
:1020E400036230BC704700BF002C014030B4036A67
:1020F400026A22F4807202624268C46924F0730C9A
:102104000C6844EA0C0523F400738C6843EA042346
:10211400114CA04203D004F50064A04206D123F47C
:102124000063CC6843EA042323F480630A4CA0428E
:1021340003D004F50064A04207D122F440524C6954
:1021440042EA04128C6942EA04124260C5614A6898
:10215400C263036230BC7047002C014030B4036A90
:10216400026A22F4805202624468C26922F4E6429E
:102174000D6842EA052223F400538D6843EA0533CF
:10218400094DA84203D005F50065A84204D124F402
:1021940080444D6944EA85144460C2614A6802641B
:1021A400036230BC704700BF002C014010B4036AC6
:1021B400046A24F001040462846924F0F00C4CEAFB
:1021C400021223F00A030B438261036210BC7047BE
:1021D40010B4036A046A24F010040462846924F4C9
:1021E400704C4CEA023223F0A00343EA01138261EB
:1021F400036210BC7047836823F070030B4343F001
:1022040007038360704770470368284A904212D0DE
:1022140002F5006290420ED0B0F1804F0BD0A2F5CF
:102224009832904207D002F58062904203D002F5C2
:102234008062904203D123F070034A6813431B4A1F
:10224400904212D002F5006290420ED0B0F1804F5D
:102254000BD0A2F59832904207D002F580629042EA
:1022640003D002F58062904203D123F44073CA681C
:10227400134323F080034A69134303608B68C362EA
:102284000B688362094B984203D003F500639842BC
:1022940001D10B69036301234361036913F0010F47
:1022A40003D0036923F0010303617047002C01404C
:1022B40040B310B5044690F83D30F3B1022384F8DE
:1022C4003D30214651F8040BFFF79EFF012384F8AB
:1022D400463084F83E3084F83F3084F8403084F847
:1022E400413084F8423084F8433084F8443084F830
:1022F400453084F83D30002010BD80F83C30FEF7B6
:1023040009FADBE70120704740B310B5044690F8A2
:102314003D30F3B1022384F83D30214651F8040BDB
:10232400FFF772FF012384F8463084F83E3084F8C6
:102334003F3084F8403084F8413084F8423084F8E7
:10234400433084F8443084F8453084F83D3000202C
:1023540010BD80F83C30FFF756FFDBE701207047E3
:10236400002856D070B50D46044690F83D30002B39
:102374004AD0022384F83D302268936823F48043D2
:1023840023F007039360214651F8040BFFF73CFF49
:1023940021688B688A690E6A2868184322F440729F
:1023A40022F00302AB68D5F818C043EA0C231343A8
:1023B40023F47C4323F0FC03EA68D5F81CC042EA0A
:1023C4000C221A432B6A1B03D5F810C043EA0C13E2
:1023D400134326F022066A686D6942EA0512324305
:1023E400886021688B6123681A62012384F846306F
:1023F40084F83E3084F83F3084F8423084F8433027
:1024040084F83D30002070BD80F83C30FEF7A8F918
:10241400AFE701207047000030B4036A026A22F07B
:10242400100202624468826922F4E6420D6842EABC
:10243400052223F020038D6843EA0513114DA842B9
:1024440003D005F50065A84206D123F08003CD68CA
:1024540043EA051323F040030A4DA84203D005F5CF
:102464000065A84207D124F440644D6944EA850418
:102474008D6944EA8504446082614A688263036228
:1024840030BC7047002C014038B590F83C30012B2B
:1024940066D004460D46012380F83C300C2A5AD8F5
:1024A400DFE802F0075959591B59595930595959FC
:1024B40044000068FFF7E2FD2268936943F00803D3
:1024C40093612268936923F00403936122689369FA
:1024D40029690B43936100203EE00068FFF79CFFED
:1024E4002268936943F4006393612268936923F437
:1024F4008063936122689369296943EA01239361A4
:10250400002029E00068FFF7F1FD2268D36943F059
:102514000803D3612268D36923F00403D3612268DA
:10252400D36929690B43D361002015E00068FFF7E4
:1025340015FE2268D36943F40063D3612268D3692A
:1025440023F48063D3612268D369296943EA0123B0
:10255400D361002000E00120002384F83C3038BD22
:102564000220FCE710B4846824F47F4C42EA03227E
:102574000A4342EA0C02826010BC704790F83C3077
:10258400012B78D010B50446012380F83C30022397
:1025940080F83D300268936823F47F4323F0770387
:1025A40093600B68602B4CD023D8402B54D011D8A7
:1025B400202B03D00AD80BB1102B05D11946206863
:1025C400FFF719FE002028E0012026E0302BF5D08B
:1025D400012022E0502B0AD1CA6849680068FFF73D
:1025E400E5FD50212068FFF706FE002015E00120DC
:1025F40013E0B3F5805F3AD0B3F5005F14D0702BCD
:1026040037D1CB684A6889680068FFF7ABFF226856
:10261400936843F0770393600020012384F83D30EE
:10262400002384F83C3010BDCB684A688968006890
:10263400FFF798FF2268936843F480439360002077
:10264400EBE7CA6849680068FFF7C2FD60212068AB
:10265400FFF7D1FD0020E0E7CA6849680068FFF78A
:10266400A5FD40212068FFF7C6FD0020D5E7002026
:10267400D3E70120D1E70220704701F01F014FF09A
:10268400010C0CFA01FC036A23EA0C030362036ADB
:102694008A4013430362704710B504460846002974
:1026A40039D194F83E30013B18BF0123002B63D18C
:1026B400002846D1022384F83E30012201462068D6
:1026C400FFF7DBFF23682E4A934203D002F5006232
:1026D400934203D15A6C42F400425A642368284A54
:1026E40093423ED002F5006293423AD0B3F1804F58
:1026F40037D0A2F59832934233D002F580629342E8
:102704002FD002F5806293422BD01A6842F0010266
:102714001A6000202FE0042907D008290BD094F870
:102724004130013B18BF0123C0E794F83F30013B1F
:1027340018BF0123BAE794F84030013B18BF0123C6
:10274400B4E7042805D0082807D0022384F84130D0
:10275400B3E7022384F83F30AFE7022384F8403024
:10276400ABE79A6802F00702062A07D01A6842F01B
:1027740001021A60002010BD0120FCE70020FAE7E6
:10278400002C014038B5044690F83E00C0B294F8DD
:102794003F3094F84220D2B294F843C00D46B1B908
:1027A400012849D1012A48D1022384F83E3084F813
:1027B40042307DB3042D39D0012200212068FFF777
:1027C4005CFF012204212068FFF757FF27E0DBB2FA
:1027D4005FFA8CFC042912D0012833D1012B2CD1AF
:1027E400012A31D1BCF1010F30D1022384F83E30EB
:1027F40084F83F3084F8423084F84330D9E7012B21
:102804001CD1BCF1010F1BD1022384F83F3084F8A2
:102814004330CEE7012200212068FFF72EFF226813
:10282400136843F001031360002006E00122042131
:102834002068FFF722FFF2E7012038BD0120FCE702
:102844001846FAE70120F8E71846F6E71046F4E7D9
:1028540090F83C20012A34D010B40346012280F8B9
:102864003C20022280F83D2002685068946820F0E1
:10287400700C086840EA0C0050601A6812488242E2
:1028840012D000F5006082420ED0B2F1804F0BD01E
:10289400A0F59830824207D000F58060824203D0D0
:1028A40000F58060824204D124F080044968214309
:1028B4009160012283F83D20002083F83C0010BC85
:1028C40070470220704700BF002C0140024690F878
:1028D4003C30012B21D0012380F83C30CB6823F419
:1028E40040738868034323F480634868034323F4F4
:1028F40000630868034323F480530869034323F403
:1029040000534869034323F48043C9690B431168A6
:102914004B64002082F83C00704702207047026834
:1029240002F10C0353E8003F23F490730C3242E8A5
:1029340000310029F3D1026802F1140353E8003F87
:1029440023F00103143242E800310029F3D1036B70
:10295400012B05D0202380F8423000230363704705
:10296400026802F10C0353E8003F23F010030C3219
:1029740042E800310029F3D1ECE790F84130212BF3
:1029840001D0022070478368B3F5805F17D0036AD3
:102994005A1C02621A7803685A60C38C9BB2013BCA
:1029A4009BB2C3844BB90268D36823F08003D3601D
:1029B4000268D36843F04003D36000207047036982
:1029C400002BE4D1036A1B880268C3F30803536035
:1029D400036A02330362E0E710B504460268136930
:1029E40023F44053C1680B431361836802691343A2
:1029F40042691A430168CB6823F4B05323F00C03F3
:102A04001343CB600268536923F4407381690B4319
:102A140053610268134B9A4220D0FFF70FFB024622
:102A240002EB820202EB820263689B00B2FBF3F2C8
:102A34000D48A0FB02314909642303FB11231B0148
:102A44003233A0FB03035B0903F0F00202EB011233
:102A540003F00F03216813448B6010BDFFF7FEFAE7
:102A64000246DDE7003801401F85EB512DE9F043B4
:102A740083B005460E4617469946DDF828802B6834
:102A84001C6836EA04040CBF01240024BC4228D18B
:102A9400B8F1FF3FF3D0FEF76FF9A0EB0900404512
:102AA40023D8B8F1000F22D02B68DA6812F0040F93
:102AB400E5D0802EE3D0402EE1D01A6812F0080F42
:102AC400DDD0002401941A6801925B680193019B94
:102AD4002846FFF724FF08236B6485F84040012053
:102AE40000E0002003B0BDE8F0830320FAE70320F0
:102AF400F8E760B310B5044690F8413013B32423CB
:102B040084F841302268D36823F40053D36020460C
:102B1400FFF762FF2268136923F49043136122686C
:102B2400536923F02A0353612268D36843F40053A2
:102B3400D36000206064202384F8413084F842305C
:102B4400606310BD80F84030FEF768F8D7E70120D5
:102B540070472DE9F04182B01E4690F84130202B99
:102B640056D104460D469046002955D00AB9012095
:102B74004FE000234364212380F84130FEF7FCF842
:102B84000746A4F82480A4F82680A368B3F5805FE0
:102B940002D04FF0000814E023692BB34FF0000873
:102BA4000FE0202384F84130032032E038F8023B60
:102BB4002268C3F308035360E28C92B2013A92B2E2
:102BC400E284E38C9BB293B100963B4600228021C1
:102BD4002046FFF74BFF0028E3D1002DE6D015F87F
:102BE400012B23685A60E7E7A8460025E9E7009629
:102BF4003B46002240212046FFF738FF18B9202326
:102C040084F8413005E0202384F84130032000E0BB
:102C1400022002B0BDE8F0810120FAE7704708B550
:102C24000168CA6822F04002CA60202280F841206C
:102C3400FFF7F4FF002008BD7047704708B5406AED
:102C44000023C385C384FFF7F8FF08BD704790F8DD
:102C54004230222B68D18368B3F5805F4ED0826AFC
:102C6400B3F5805F04D0002B55D10369002B52D1FA
:102C740003685B681370836A01338362C38D9BB2FC
:102C8400013B9BB2C385002B50D100B583B00268D1
:102C9400D36823F02003D3600268D36823F48073DD
:102CA400D3600268536923F001035361202380F841
:102CB400423000234363036B012B32D100230363AF
:102CC400026802F10C0353E8003F23F010030C32B6
:102CD40042E800310029F3D103681A6812F0100F9A
:102CE40006D0002201921A6801925B680193019B4D
:102CF400818DFFF7ABFF002003B000BD0269002AFD
:102D0400ADD1826A03685B68C3F308031380836AE6
:102D140002338362B2E703685B6803F07F031370D6
:102D2400A9E7FFF789FFE6E7022070470020704714
:102D340010B582B0044602681368D068516913F074
:102D44000F0F09D113F0200F0CD010F0200F09D071
:102D54002046FFF77CFF16E011F0010115D110F4B5
:102D6400907F12D1216B012979D013F0800F03D009
:102D740010F0800F40F0138113F0400F03D010F0D7
:102D8400400F40F0108102B010BD13F0010F06D0C7
:102D940010F4807F03D0626C42F00102626413F08D
:102DA400040F04D019B1626C42F00202626413F0A1
:102DB400020F04D019B1626C42F00402626413F091
:102DC400080F07D010F0200F00D119B1626C42F047
:102DD40008026264626C002AD5D013F0200F02D07E
:102DE40010F0200F29D123685B6903F04003626C63
:102DF40012F0080F00D163B32046FFF790FD23685B
:102E04005B6913F0400F20D0226802F1140353E8E9
:102E1400003F23F04003143242E800310029F3D18B
:102E2400E36B73B1624A5A63E06BFEF757F800280C
:102E3400A9D0E06B436B9847A5E72046FFF707FF4F
:102E4400D1E72046FFF7F9FE9DE72046FFF7F5FEA0
:102E540099E72046FFF7F1FE0023636493E713F03C
:102E6400100F82D010F0100F3FF47FAF00230193B6
:102E74001368019353680193019B536913F0400F46
:102E840051D0E26B13685B689BB2002B3FF47BAFBD
:102E9400A18D99427FF677AFE3859369202B37D0D4
:102EA400226802F10C0353E8003F23F480730C32D0
:102EB40042E800310029F3D1226802F1140353E8F7
:102EC400003F23F00103143242E800310029F3D11A
:102ED400226802F1140353E8003F23F04003143244
:102EE40042E800310029F3D1202384F84230002342
:102EF4002363226802F10C0353E8003F23F010031C
:102F04000C3242E800310029F3D1E06BFDF7C4FF35
:102F140002236363A18DE38D9BB2C91A89B2204653
:102F2400FFF794FE2FE7A18DE38D9BB2C91A89B2F6
:102F3400E38D9BB2002B3FF426AF00293FF423AF6F
:102F4400226802F10C0353E8003F23F490730C321F
:102F540042E800300028F3D1226802F1140353E858
:102F6400003F23F00103143242E800300028F3D17B
:102F7400202384F8423000232363226802F10C03E7
:102F840053E8003F23F010030C3242E800300028DD
:102F9400F3D1022363632046FFF758FEF3E620468D
:102FA400FFF7EBFCEFE62046FFF739FEEBE600BF48
:102FB400412C000808B500224FF480510148FEF767
:102FC400F2F908BD002001400138032824D8DFE8C5
:102FD40000F0020D151C114B586A00B247F6FF723F
:102FE4005A62C0F5FF407F3000B270474FF0804313
:102FF400586A00B247F6FF725A62F2E7084B586A01
:1030040000B247F6FF725A62EBE7064B586A00B209
:1030140047F6FF725A62E4E7002070470008004058
:10302400000C004000040040012803D0022804D012
:1030340008467047484200B27047484200B27047A1
:1030440038B5002415E0651CEDB22846FFF7BCFF37
:1030540001462846FFF7E8FF074B23F81400074A08
:1030640052F82430034442F82430054B23F814006A
:103074002C46032CE7D938BDD0020020C002002022
:10308400B802002000230BE00022074921F8132096
:10309400064941F82320064921F813200133DBB205
:1030A400032BF1D9704700BFD0020020C0020020DA
:1030B400B802002008B53C210F48FFF763FB3C2110
:1030C4000E48FFF75FFB3C210D48FFF75BFB3C21FB
:1030D4000C48FFF757FB47F6FF730B4A53624FF058
:1030E4008042536202F540625362A2F50062536269
:1030F400FFF7C8FF08BD00BF4C010020DC01002021
:10310400040100209401002000080040A0F53B5376
:10311400203B40F6B832934211D9A0F520530A3B24
:10312400B3F5FA6F0DD9A0F23A73B3F5487F0AD913
:10313400A0F2D520B0F5487F07D9FF2070470220C0
:10314400704703207047012070470020704700003B
:1031540008B5364B5B68364AA2FB03231909354A86
:1031640010681160C0EB1310FFF7D0FF02283AD0AB
:1031740028D8012853D8304B1B78012B3DD12F4B35
:103184001A6852001A601A68104318602C4A13789F
:103194000133DBB213701F2B2FD9284A1068136830
:1031A400C3F307431168C1F307211268D2B2DB43AA
:1031B400DBB2B3EB106F21D000231F4A1370204AF7
:1031C40013701AE003282AD11E4B1B78FF2B04D05E
:1031D40001231D4A13701D4A13700023164A1370ED
:1031E400174A137009E0144B01221A700023144A81
:1031F4001370124A1360144A137008BDD243D3B239
:103204008B42D9D10F4B19700C4B1A68104B1A60B2
:103214000D4B00221A700D4B01221A70CCE70023CB
:10322400054A1370064A1370E7E700BF001000E078
:10323400398EE338E8020020EC020020E00200208E
:10324400E40200200C000020D8020020D902002053
:10325400DC02002008B5032826D8DFE800F0020BC2
:10326400141D4FF400511148FEF796F8003818BFAA
:10327400012008BD4FF480410C48FEF78DF800385A
:1032840018BF0120F5E74FF400410848FEF784F821
:10329400003818BF0120ECE701210548FEF77CF84F
:1032A400003818BF0120E4E70120E2E7001C0140D8
:1032B40000200140002307E0054A0121D154054ABA
:1032C4000021D1540133DBB2032BF5D9704700BF81
:1032D40010000020F002002010B500240DE00E4A7A
:1032E400135D0133DBB213552BB10C4B01221A557C
:1032F400094B00221A550134E4B2032C0AD82046A3
:10330400FFF7A8FF0028EAD10023044A1355024A14
:103314001355F0E710BD00BFF0020020100000209C
:10332400074B1A68D36843F02003D3600023054A8F
:103334001370054A1370054A1370054A13707047D9
:103344006C020020F6020020F5020020F4020020A6
:10335400F802002000B583B08DF807006423012231
:103364000DF107010248FFF7F4FB03B000BD00BFF5
:103374006C02002008B5002201E0013292B2835CA5
:10338400002BFAD102B908BD4FF47A730146024802
:10339400FFF7DFFBF7E700BF6C02002010B504461F
:1033A4002420FFF7D7FF2046FFF7E4FF2320FFF791
:1033B400D1FF10BD194B1B681A6812F0200F2CD0D6
:1033C4005B68DBB2242B0FD0154A12780AB1232B89
:1033D40013D012B3134A12783F2A19D8501C11493A
:1033E400087011498B54704700230E4A13700C4A1D
:1033F400012111700C4A137070470A4B1A7800238C
:1034040009498B54064A1370084B01221A707047FD
:103414000023034A1370034A137070476C020020A0
:10342400F5020020F6020020F8020020F402002039
:10343400014B1878704700BFF40200200048704721
:10344400F8020020014B00221A707047F402002099
:1034540008B501280DD0022813D0D0B9082100F1F5
:10346400804000F59030FDF797FFB0FA80F04009F6
:1034740008BD10210848FDF78FFFB0FA80F040091D
:10348400F6E720210448FDF787FFB0FA80F04009F1
:10349400EEE70020ECE700BF002001400023022BF0
:1034A4000DDC10B4064C03EB430021180022225417
:1034B4004A708A700133022BF4DD10BC70477047E8
:1034C4003C03002010B5002406E004EB4402134B37
:1034D400134400225A700134022C1EDCE0B2FFF7C0
:1034E400B7FF0E4A04EB4403D1184FF0000C81F8E7
:1034F40002C0D35C8342E8D04B780133DBB24B701B
:10350400132BE8D9054A04EB4403D05481F801C0D5
:103514000028E0D001228A70DDE710BD3C030020C2
:1035240010B50B4B0024DC709C705C701C70094B54
:10353400DC709C705C701C7022469C210648FDF770
:1035440032FF224606210548FDF72DFF10BD00BFBE
:10355400500300204C0300200018014000200140CB
:1035640030B5584A13889BB201339BB21380B3F52C
:10357400FA7F09D3134600221A80534A1378DBB228
:10358400B3FA83F35B091370504A13889BB2013377
:103594009BB21380632B09D9134600221A804C4A2C
:1035A4001378DBB2B3FA83F35B091370494A1378D7
:1035B4000133DBB21370632B02D9134600221A7055
:1035C400454BDB78012B40D0022B4BD0424B187873
:1035D4005C7893F802C0414BDB78012B49D0022B75
:1035E40056D03E4B197893F801E09A78394B1B7802
:1035F4008B4254D200210423364D2D78754551D287
:1036040043F00803334D95F800E096454DD243F05E
:103614001003304A1278A2424AD243F080032D4A62
:103624001278824247D2002002222A4C94F800E009
:10363400E64543D242F0040243EA014328490B61C0
:1036440042EA0042274B1A6130BD1F4B1B78DBB2A4
:10365400B3FA83F35B09002BB8D04FF0000C644637
:103664006046B8E71A4B1B78DBB2B3FA83F35B0905
:10367400F1E7154B1B78DBB2B3FA83F35B09002B3C
:10368400AFD0144B1B780022964604211346B3E7AF
:103694000F4B1B78DBB2B3FA83F35B09EFE704212A
:1036A4000023A9E741F00801ACE741F01001B0E7BD
:1036B40041F08001B3E702200022B6E740F00400A5
:1036C400BAE700BF4803002015000020460300208D
:1036D400140000204A030020500300204C03002063
:1036E4000018014000200140064B1A680023536370
:1036F4009363D3631364044A126853639363D36379
:103704001364704724020020BC00002038B5174D14
:1037140000212846FEF7C0FF04212846FEF7BCFF1F
:1037240008212846FEF7B8FF0C212846FEF7B4FF0F
:103734000F4C00212046FEF7AFFF04212046FEF780
:10374400ABFF08212046FEF7A7FF0C212046FEF719
:10375400A3FF2A68536C43F4004353642268536CF8
:1037640043F400435364FFF7BFFF38BD2402002035
:10377400BC00002000B587B08DF8170064230293C5
:10378400012301930DF117020092002278210248CF
:10379400FEF7A0F807B000BD6800002000B585B0B2
:1037A400642302930191009001234022782102486E
:1037B400FEF790F805B000BD6800002010B50024A5
:1037C40012E0A4F15000C0B2FFF7D4FF0020FFF7CD
:1037D400D1FF1020FFF7CEFF8021054800EBC41075
:1037E400FFF7DCFF0134E4B2032CEAD910BD00BFBB
:1037F4005803002008B54FF400720021014800F07E
:103804004DFA08BD5803002008B56420FDF7BAFA44
:10381400AE20FFF7AFFFD520FFF7ACFF8020FFF706
:10382400A9FFA820FFF7A6FF1F20FFF7A3FFD320BF
:10383400FFF7A0FF0020FFF79DFF4020FFF79AFF4E
:103844008D20FFF797FF1420FFF794FF2020FFF748
:1038540091FF0220FFF78EFFA120FFF78BFFC82006
:10386400FFF788FFDA20FFF785FF0220FFF782FFCA
:103874008120FFF77FFFCF20FFF77CFFD920FFF7E0
:1038840079FFF120FFF776FFDB20FFF773FF40207D
:10389400FFF770FF2E20FFF76DFFA420FFF76AFFEC
:1038A400A620FFF767FFAF20FFF764FFFFF7A2FF33
:1038B400FFF784FF024B00221A805A8008BD00BF24
:1038C40054030020014B1880598070475403002092
:1038D4007F281ED81F291CD810B4012A0ED0CB086B
:1038E40000EBC3100B4C225C01F0070101238B4059
:1038F400DB435BB21340235410BC7047CB0800EB8E
:10390400C310044C235C01F007018A401343235481
:10391400F2E77047580300202DE9F8439046244B02
:103924001B880A7813447F2B3EDC81460D46204BCE
:103934005B884A7813441F2B38DC002620E01C4B9C
:103944001888598831442044B8FA88F2520989B257
:1039540080B2FFF7BDFF01342B78A3420FD907FAD9
:1039640004F313F4004FEAD0114B188859883144FA
:103974002044424689B280B2FFF7AAFFEBE7013642
:103984006A78B24208D96968A9F1200302FB03638B
:1039940031F813700024DFE7054A138829780B44B3
:1039A40013804846BDE8F8830020FBE70020F9E7D0
:1039B4005403002070B504460E46154600E0013459
:1039C400207838B12A463146FFF7A6FF034620780F
:1039D4008342F4D070BD000030B585B0184AD2F8E7
:1039E400FC3043F08073C2F8FC30164B00245C605A
:1039F4001A6842F001021A60694600940194029424
:103A040003944FF4805300930F4B01930F4D2846BA
:103A1400FDF718FB224621462820FDF70BFA282043
:103A2400FDF718FA22464FF400612846FDF7BBFC67
:103A3400074B1C70074B1C80074B1C7005B030BD36
:103A440000ED00E0001000E000003110001C014017
:103A5400590500205A0500205805002008B54FF4E8
:103A640080511C48FDF798FC012820D01A4B1B7884
:103A740043B31A4B5A681A4BA3FB0232194B1B6807
:103A8400C3EB1213144A0021117048F6B702934293
:103A940019D803EB83030E33134AA2FB0323C3F3A6
:103AA4000F13124A1380124B01221A700AE00B4BB7
:103AB4005B680B4AA2FB03231B090A4A1360064BEB
:103AC40001221A7008BD094B00221A80084B0122FA
:103AD4001A70F7E7001C014059050020001000E0AF
:103AE400398EE3385C05002009CB3D8D5A05002052
:103AF40058050020002393420BD210B4C45C24B1B7
:103B0400CC540133DBB29342F8D30022CA5410BC24
:103B140070470022CA54704738B500240E4B1C80ED
:103B24000E4B1C800E4B1C70FFF764FE2146204692
:103B3400FFF7C8FE0B4D012229460B48FFF73AFF59
:103B44000A212046FFF7BEFE012229460748FFF757
:103B540031FFFFF733FE38BD640500206205002005
:103B640060050020180000202446000830460008A4
:103B740030B587B0FFF75CFC002839D13D4A138883
:103B840001339BB21380B3F57A7F6CD23A4B1B7826
:103B940033B93A4A138801339BB21380C72B25D912
:103BA4000024364B1C80344B1C70FFF723FE214647
:103BB4002046FFF787FE324D012229463148FFF7A0
:103BC400F9FE012229463048FFF7F4FE0A21204677
:103BD400FFF778FE012229462C48FFF7EBFE01226D
:103BE40029462B48FFF7E6FEFFF7E8FD07B030BD96
:103BF400FFF724FC0446FFF725FC10222249204647
:103C0400FFF778FF1C4B01221A70224B93E8030044
:103C14000090ADF804100023CDF80630CDF80A303A
:103C2400CDF80E30CDF81230ADF81630052306E08D
:103C340003F11801694401F8182C0133DBB2E218CE
:103C440012F8052C0AB1162BF2D918336B44002252
:103C540003F8182C6846FFF7A1FB10220C496846AC
:103C6400FFF748FF8AE7134600221A800A48FFF745
:103C740095FB8BE7640500206005002062050020A9
:103C8400180000203C460008340000204446000888
:103C940020000020743E000834460008830730B535
:103CA40046D08446841805E0634603F8011B9D074B
:103CB40003D09C46A445F7D130BD013A0244A2EB9F
:103CC4000C02032A29D9CCB204EB04240F2A04EBF6
:103CD40004442FD9A2F1100C2CF00F0C03F11005A1
:103CE400AC44C3E90044C3E9024410336345F8D14A
:103CF40012F00C0F02F00F0E18D01A462EF0030C1F
:103D04009C44AEF1040542F8044B6245FBD125F016
:103D1400030404330EF003022344002ACCD0C9B2B6
:103D24001A4403F8011B9342FBD130BD7246F4E7F9
:103D34000346C6E79646E0E770B50F4B0F4DAB421E
:103D4400A3EB050607D00024B61055F8043B013454
:103D54009847A642F9D800F07FF8094D094B5E1B3D
:103D6400AB424FEAA60606D0002455F8043B0134C2
:103D74009847A642F9D870BD4C4600084C46000846
:103D84004C46000854460008704700BF704700BF07
:103D9400024B13B1024800F005B870470000000060
:103DA400B53D0008002301461A46184600F014B831
:103DB40038B5074D074C2C1BA41005D0013C55F811
:103DC400043D9847002CF9D1BDE8384000F04AB8CA
:103DD40058460008544600082DE9F8431B4D064692
:103DE400286898460F469146FFF7CEFF184B1C688B
:103DF4001CB3286865681F2D22DC4EB96B1C023584
:103E0400636044F82570FFF7C1FF0020BDE8F88324
:103E1400012304EB8501C1F88890D4F88821AB40D4
:103E24001A43022EC4F88821C1F80881E6D1D4F8D7
:103E34008C211A43C4F88C21E0E7064C1C60D8E7B7
:103E4400FFF7A4FF4FF0FF30E0E700BF4800002079
:103E54006C05002070050020F8B500BFF8BC08BC54
:103E64009E467047F8B500BFF8BC08BC9E46704734
:103E74006563686F3A000000000000000000000065
:103E84000000000000000000000000000102030424
:103E940000000000000000000102030406070809F6
:103EA4000102000002030405060708090A0B0C0DB1
:103EB4000E0F1010000000000000000000000000C1
:103EC40000000000000000000010001000100010AE
:103ED400001000100000001000000000002800285E
:103EE40000280000000000000000000000000000A6
:103EF40000240024007C00240048007C0048004882
:103F04000000000000380054005000380014005431
:103F14000054003800100000002000540058003005
:103F240000280054001400080000000000100028BD
:103F3400002800100034004800480034000000004D
:103F4400001000100010000000000000000000003D
:103F540000000000000800100020002000200020C5
:103F640000200020001000080020001000080008B5
:103F740000080008000800080010002000100038A5
:103F840000100028000000000000000000000000F5
:103F94000000000000100010007C00100010000061
:103FA400000000000000000000000000000000000D
:103FB40000000010001000100000000000000000CD
:103FC40000000038000000000000000000000000B5
:103FD40000000000000000000000001000000000CD
:103FE400000800080010001000100010002000203D
:103FF4000000000000380044004400540044004421
:104004000044003800000000001000300050001090
:1040140000100010001000100000000000380044E0
:1040240000440004000800100020007C0000000090
:104034000038004400040018000400040044003860
:104044000000000000080018002800280048007C38
:104054000008000800000000007C004000400078D8
:10406400000400040044003800000000003800444C
:104074000040007800440044004400380000000080
:10408400007C000400080010001000200020002024
:10409400000000000038004400440038004400449C
:1040A400004400380000000000380044004400448C
:1040B400003C000400440038000000000000000040
:1040C40000100000000000000000001000000000CC
:1040D40000000000000000100000000000000010BC
:1040E4000010001000000000000C00300040003000
:1040F400000C000000000000000000000000007C34
:104104000000007C0000000000000000000000002F
:1041140000600018000400180060000000000000A7
:1041240000380044000400080010001000000010D3
:104134000000000000380044004C0054005C0040C3
:10414400004000380000000000100028002800286B
:104154000028007C00440044000000000078004473
:10416400004400780044004400440078000000004B
:104174000038004400400040004000400044003843
:104184000000000000700048004400440044004463
:104194000048007000000000007C00400040007CEB
:1041A400004000400040007C00000000007C004013
:1041B4000040007800400040004000400000000043
:1041C4000038004400400040005C004400440038D3
:1041D40000000000004400440044007C004400440B
:1041E40000440044000000000038001000100010DB
:1041F400001000100010003800000000000400044B
:10420400000400040004000400440038000000001E
:10421400004400480050006000500048004800443A
:10422400000000000040004000400040004000400A
:104234000040007C000000000044006C006C00544E
:1042440000440044004400440000000000440064B2
:10425400006400540054004C004C00440000000072
:104264000038004400440044004400440044003842
:10427400000000000078004400440044007800403E
:1042840000400040000000000038004400440044A6
:104294000044004400540038000400000078004446
:1042A4000044004400780048004800440000000036
:1042B4000038004400400030000800040044003886
:1042C40000000000007C001000100010001000101E
:1042D40000100010000000000044004400440044AA
:1042E400004400440044003800000000004400443E
:1042F40000440028002800280010001000000000DE
:1043040000440044005400540054006C0028002869
:1043140000000000004400280028001000100028BD
:104324000028004400000000004400440028002845
:10433400001000100010001000000000007C0004B9
:1043440000080010001000200040007C0000000065
:1043540000180010001000100010001000100010D1
:1043640000100018002000200010001000100010A1
:1043740000080008000000000030001000100010C9
:104384000010001000100010001000300010002871
:1043940000280044000000000000000000000000AD
:1043A4000000000000000000000000000000000009
:1043B40000FE0000002000100000000000000000CB
:1043C400000000000000000000000000003800446D
:1043D400003C0044004C0034000000000040004059
:1043E40000580064004400440064005800000000C9
:1043F4000000000000380044004000400044003841
:1044040000000000000400040034004C0044004498
:10441400004C00340000000000000000003800449C
:10442400007C00400044003800000000000C001034
:10443400007C0010001000100010001000000000AC
:10444400000000000034004C00440044004C0034E0
:104454000004007800400040005800640044004418
:104464000044004400000000001000000070001030
:1044740000100010001000100000000000100000E8
:10448400007000100010001000100010001000E078
:1044940000400040004800500060005000480044C4
:1044A4000000000000700010001000100010001048
:1044B400001000100000000000000000007800540C
:1044C4000054005400540054000000000000000098
:1044D400005800640044004400440044000000000C
:1044E4000000000000380044004400440044003848
:1044F4000000000000000000005800640044004474
:104504000064005800400040000000000034004CEB
:1045140000440044004C0034000400040000000087
:1045240000580064004000400040004000000000CB
:104534000000000000380044003000080044003847
:10454400000000000020002000780020002000204F
:104554000020001800000000000000000044004497
:1045640000440044004C003400000000000000003F
:104574000044004400280028002800100000000027
:1045840000000000005400540054006C002800286F
:10459400000000000000000000440028001000108B
:1045A4000028004400000000000000000044004413
:1045B4000028002800100010001000600000000017
:1045C400007C0008001000200040007C0000000077
:1045D400001800100010001000200020001000102F
:1045E400001000180010001000100010001000103F
:1045F4000010001000100010003000100010001017
:104604000008000800100010001000300000000036
:1046140000000074004C00000000000000000000D6
:1046240052583A206E6F6E650000000054583A20CC
:10463400616C69766500000052583A200000000061
:0846440054583A200000000068
:08464C00953D00080902000879
:04465400E501000874
:1046580000127A000100000010000000FF000000B6
:104668000101010101010000070A0000B83E00082D
:10467800616C697665000000000000000000000021
:10468800000000006E6F6E65000000000000000072
:0C46980000000000000000006805002089
:0400000508000CA93A
:00000001FF
